:020000040000fa
:080000000002040000000000f2
:020000040000fa
:100008007203000072030000720300007203000014
:100018007203000072030000720300007203000004
:100028007203000072030000720300009a020000cd
:1000380072030000720300007203000072030000e4
:1000480072030000720300007203000072030000d4
:1000580072030000720300007203000072030000c4
:1000680072030000720300007203000072030000b4
:1000780072030000720300007203000072030000a4
:100088007203000072030000720300007203000094
:100098009c04000072030000720300007203000059
:1000a8007203000072030000720300007203000074
:1000b8007203000072030000720300007203000064
:1000c8007203000072030000720300007203000054
:1000d8007203000072030000720300007203000044
:1000e8007203000072030000720300007203000034
:1000f8007203000072030000720300007203000024
:100108007203000072030000720300007203000013
:100118007203000072030000720300007203000003
:1001280072030000720300007203000072030000f3
:1001380072030000720300007203000072030000e3
:1001480072030000720300007203000072030000d3
:1001580072030000720300007203000072030000c3
:1001680072030000720300007203000072030000b3
:1001780072030000720300007203000072030000a3
:100188007203000072030000720300007203000093
:100198007203000072030000720300007203000083
:1001a8007203000072030000720300007203000073
:1001b8007203000072030000720300007203000063
:1001c8007203000072030000720300007203000053
:1001d8007203000072030000720300007203000043
:1001e8007203000072030000720300007203000033
:0801f800720300007203000015
:020000040000fa
:100208007203000072030000720300007203000012
:100218007203000072030000720300007203000002
:100228007203000072030000720300009a020000cb
:1002380072030000720300007203000072030000e2
:1002480072030000720300007203000072030000d2
:1002580072030000720300007203000072030000c2
:1002680072030000720300007203000072030000b2
:1002780072030000720300007203000072030000a2
:100288007203000072030000720300007203000092
:100298009c04000072030000720300007203000057
:1002a8007203000072030000720300007203000072
:1002b8007203000072030000720300007203000062
:1002c8007203000072030000720300007203000052
:1002d8007203000072030000720300007203000042
:1002e8007203000072030000720300007203000032
:1002f8007203000072030000720300007203000022
:100308007203000072030000720300007203000011
:100318007203000072030000720300007203000001
:1003280072030000720300007203000072030000f1
:1003380072030000720300007203000072030000e1
:1003480072030000720300007203000072030000d1
:1003580072030000720300007203000072030000c1
:1003680072030000720300007203000072030000b1
:1003780072030000720300007203000072030000a1
:100388007203000072030000720300007203000091
:100398007203000072030000720300007203000081
:1003a8007203000072030000720300007203000071
:1003b8007203000072030000720300007203000061
:1003c8007203000072030000720300007203000051
:1003d8007203000072030000720300007203000041
:1003e8007203000072030000720300007203000031
:0803f800720300007203000013
:020000040000fa
:10040000af8120000e7f22000e0188000000000056
:10041000000020000000e000020032000001200087
:10042000200288000c000700604e20000100200020
:1004300011000700000020000000e0000200320070
:100440000000020000000000100302000000000095
:100450000040da000000fe004440a9000002200035
:100460000000e0000300320000002000a00188002e
:100470004440a80000000600910188008000780038
:100480000000eb0015003700e280400032a0b4000d
:100490009101ba00e280400032a0b4009102ba009b
:1004a000e280400032a0b4000002eb00472bde00e7
:1004b000f507b200602ce10004003a000059eb009f
:1004c0008301e900fdff3e00040037006128e100e0
:1004d000010032000082eb00040007001101ba00a5
:1004e0000200e000e8ff3a00000006003159ba00bf
:1004f0008301e9000c0032002159ba008301e900b0
:10050000080032000400e00003003a00e2804000ee
:1005100032a0b400f5ff370011d9ba008301e90019
:10052000faff3a008100e800e180400032a0b40008
:10053000000006003600f800809fbe00829fbe00cb
:10054000849fbe00869fbe000000fa00800020004d
:10055000c900070011408000a000200000017800c1
:10056000110009008200d800dc0007000000fb0039
:100570008000780010002000a700070090002000f5
:10058000bd00070011408000a0002000000178009d
:10059000110009008200d8008000fd00cf00070094
:1005a0000000fb0080007800100020009a00070087
:1005b000104080000000e8001040880010408000db
:1005c000f30f5000010034000228ef0010168000e5
:1005d000620060000000e00005003200c00420005e
:1005e000a500070060372800ac00070004003700b2
:1005f000c0042000a0000700a0372800a7000700c3
:100600008460a9000080fa004f03be004f02be00c4
:100610004f01be004f00be003600f900004006004a
:100620000000fa00e0ff2f00601988001000200091
:1006300000168800c822ef00b10007000003280060
:100640002008880010a12700100888008460a900f5
:100650002005800000c0a00000d0a10000e0a100a3
:10066000200588009460a80090012000c9000700c0
:100670002e000700e037280088000700b0002000a7
:100680007d00070060382800840007000004200077
:1006900079000700903828008000070080a9230017
:1006a000bc000700101680000000d100614060000f
:1006b00000c0ea00614060000080fb006100600053
:1006c0000000400012168000d1ff2f008100610061
:1006d000010070001016880080a92300ad000700fb
:0c06e000eeff37000040da000000fe00d2
:020000040000fa
:1006ec004f6e0000200000004f4600004600000046
:1006fc00546500006d7000002e2000003a000000d0
:10070c006f43000000430000686100007566000044
:10071c006661000067650000203a000000000000e0
:020000040000fa
:10072c000a00fa008002200010079800c000200088
:10073c00200798001000200030079800600020006f
:10074c0040079800cac2a900caa2a900ca82a9007f
:10075c0010002000000f780005003700300020004a
:10076c001b00070050002000870007001e0fe80048
:10077c001e007800e30f5000f8ff3400200020002a
:10078c0013000700500020007f0007000000eb0062
:10079c00000f7800090037001e00780000004000b0
:1007ac008e80e80000804000100078008000780007
:1007bc000000eb00150007001e0fe8001e0078007b
:1007cc00e30f5000f4ff34000080fa000000060034
:1007dc000200fa00000f780061168000f0ff200084
:1007ec00808060001e0078004c00dd00010070006d
:1007fc0060168800ca82a8000c00090000000000e6
:10080c00ca82a9000080fa00000006000400fa0069
:10081c00000f780011079800100020005a00070004
:10082c001e00780000407800614060000080fb00f2
:10083c00610060004600dd0052168000f1fb2f00c5
:10084c008100610001007000501688001e009000ad
:10085c004480de00deff07001e0090006f00600089
:10086c00dbff07000080fa00000006000200fa001f
:10087c00000f7800000820001e0f70009e0078000a
:10088c000000eb00e1ff07000080fa00000006000a
:10089c000200fa00000f7800070037001e007800f5
:1008ac00104078000000fb001e0fe800800078006c
:1008bc0010002000d5ff07001e00780010407800c3
:1008cc000004e000f5ff3a000080fa00000006008a
:1008dc000400fa00100798001e00900000407800f9
:1008ec000043b000004f78001e4078000080fa00f2
:1008fc00000006000000fa008780a9009780a8007d
:10090c00900580000000a0000010a0000020a100b5
:10091c0090058800703e2000e00888000001280047
:10092c00000988000080fa000000060000a0fe000c
:10093c003400f800881f780008002000a801880007
:10094c004f0478000000fa003040800041408000e5
:10095c00e00f5000e08f580006003200304080005d
:10096c004140800061005000e08058003040880019
:10097c00414088008780a9000080fa003400f9000b
:10098c000080fe00004006000200fa00000f780014
:10099c001e007800cf80de00304088004140880087
:1009ac00000000003040800041408000e00f50000b
:1009bc00e08f5800fbff3a000080fa0000000600b0
:020000040000fa
:1009cc0000080000060000000000000006080000ff
:1009dc0004000000000000000a08000010000000e5
:1009ec000200000030313200333435003637380025
:1009fc00394142004344450046000000000000001d
:020000040000fa
:020000040001f9
:0457f80087790000ad
:020000040000fa
:020000040001f9
:0457fc003f3e00002c
:00000001FF
