:020000040000fa
:080000000002040000000000f2
:020000040000fa
:100008009a0200009a0200009a0200009a02000078
:100018009a0200009a0200009a0200009a02000068
:100028009a0200009a0200009a0200009a02000058
:100038009a0200009a0200009a020000820300005f
:100048009a0200009a0200009a0200009a02000038
:100058009a0200009a0200009a0200009a02000028
:100068009a0200009a0200009a0200009a02000018
:100078009a0200009a0200009a0200009a02000008
:100088009a0200009a0200009a0200009a020000f8
:100098009a0200009a0200009a0200009a020000e8
:1000a8009a0200009a0200009a0200009a020000d8
:1000b8009a0200009a0200009a0200009a020000c8
:1000c8009a0200009a0200009a0200009a020000b8
:1000d8009a0200009a0200009a0200009a020000a8
:1000e8009a0200009a0200009a0200009a02000098
:1000f8009a0200009a0200009a0200009a02000088
:100108009a0200009a0200009a0200009a02000077
:100118009a0200009a0200009a0200009a02000067
:100128009a0200009a0200009a0200009a02000057
:100138009a0200009a0200009a0200009a02000047
:100148009a0200009a0200009a0200009a02000037
:100158009a0200009a0200009a0200009a02000027
:100168009a0200009a0200009a0200009a02000017
:100178009a0200009a0200009a0200009a02000007
:100188009a0200009a0200009a0200009a020000f7
:100198009a0200009a0200009a0200009a020000e7
:1001a8009a0200009a0200009a0200009a020000d7
:1001b8009a0200009a0200009a0200009a020000c7
:1001c8009a0200009a0200009a0200009a020000b7
:1001d8009a0200009a0200009a0200009a020000a7
:1001e8009a0200009a0200009a0200009a02000097
:0801f8009a0200009a020000c7
:020000040000fa
:100208009a0200009a0200009a0200009a02000076
:100218009a0200009a0200009a0200009a02000066
:100228009a0200009a0200009a0200009a02000056
:100238009a0200009a0200009a020000820300005d
:100248009a0200009a0200009a0200009a02000036
:100258009a0200009a0200009a0200009a02000026
:100268009a0200009a0200009a0200009a02000016
:100278009a0200009a0200009a0200009a02000006
:100288009a0200009a0200009a0200009a020000f6
:100298009a0200009a0200009a0200009a020000e6
:1002a8009a0200009a0200009a0200009a020000d6
:1002b8009a0200009a0200009a0200009a020000c6
:1002c8009a0200009a0200009a0200009a020000b6
:1002d8009a0200009a0200009a0200009a020000a6
:1002e8009a0200009a0200009a0200009a02000096
:1002f8009a0200009a0200009a0200009a02000086
:100308009a0200009a0200009a0200009a02000075
:100318009a0200009a0200009a0200009a02000065
:100328009a0200009a0200009a0200009a02000055
:100338009a0200009a0200009a0200009a02000045
:100348009a0200009a0200009a0200009a02000035
:100358009a0200009a0200009a0200009a02000025
:100368009a0200009a0200009a0200009a02000015
:100378009a0200009a0200009a0200009a02000005
:100388009a0200009a0200009a0200009a020000f5
:100398009a0200009a0200009a0200009a020000e5
:1003a8009a0200009a0200009a0200009a020000d5
:1003b8009a0200009a0200009a0200009a020000c5
:1003c8009a0200009a0200009a0200009a020000b5
:1003d8009a0200009a0200009a0200009a020000a5
:1003e8009a0200009a0200009a0200009a02000095
:0803f8009a0200009a020000c5
:020000040000fa
:100400004f8120000e7f22000e01880000000000b6
:10041000000020000000e000020032000001200087
:10042000200288000c000700403f2000010020004f
:1004300011000700000020000000e0000200320070
:100440000000020000000000a803020000000000fd
:100450000040da000000fe004440a900a000200097
:100460000000e0000300320000002000a00188002e
:100470004440a80000000600910188008000780038
:100480000000eb0015003700e280400032a0b4000d
:100490009101ba00e280400032a0b4009102ba009b
:1004a000e280400032a0b4000002eb00472bde00e7
:1004b000f507b200602ce10004003a000059eb009f
:1004c0008301e900fdff3e00040037006128e100e0
:1004d000010032000082eb00040007001101ba00a5
:1004e0000200e000e8ff3a00000006003159ba00bf
:1004f0008301e9000c0032002159ba008301e900b0
:10050000080032000400e00003003a00e2804000ee
:1005100032a0b400f5ff370011d9ba008301e90019
:10052000faff3a008100e800e180400032a0b40008
:0c053000000006000040da000000fe00a1
:020000040000fa
:10053c00426f00006e6a00006f75000072210000af
:04054c0000000000ab
:020000040000fa
:100550000200fa00000f78000021ef000000000008
:100560009e00780000088000808f5000fcff3e0055
:100570000080fa00000006000200fa00000f780078
:1005800061168000f0c32f00808060001e0078009c
:100590004600dd000100700060168800c442a8001b
:1005a0000c00090000000000c442a9000080fa000d
:1005b000000006000400fa00000f78001107980000
:1005c00000408000e2ff07001e0078000040780035
:1005d000614060000080fb00610060004400dd00bd
:1005e00062168000f1fe2f008100610001007000a2
:1005f000601688001e0090004480de00deff0700c9
:100600001e0090006f006000dbff07000080fa0012
:10061000000006000a00fa0080022000100798007f
:10062000c00020002007980010002000300798002c
:100630006000200040079800cc82a900c462a90095
:10064000c442a90010002000000f78000500370008
:1006500030002000c8ff070000712200bcff070027
:100660001e0fe8001e007800e30f5000f8ff340072
:1006700020002000c0ff070000712200b4ff070027
:100680000000eb00000f7800090037001e00780022
:10069000000040008e80e8000080400010007800dc
:1006a000800078000000eb00c2ff07001e0fe8008a
:1006b0001e007800e30f5000f4ff34000080fa00c1
:1006c000000006000200fa00000f78000700370063
:1006d0001e007800104078000000fb001e0fe800ac
:1006e0008000780010002000b2ff07001e00780094
:1006f000104078000004e000f5ff3a000080fa00a6
:100700000000060000a0fe003400f800881f7800fa
:1007100008002000a80188004f0478000000fa00bb
:10072000104080000000e800104088001040800069
:10073000e90f5000010034000228ef0084e0a90016
:100740000080fa003400f9000080fe00004006003e
:100750000000fa00e0ff2f00601988001000200060
:1007600000168800c822ef00000128002008880039
:1007700000a02f00100888000003280080088800cf
:1007800020a127006008880084e0a90030058000cf
:1007900000c0a00000d0a10000e0a100300588004a
:1007a00094e0a800000e2000001988002823ef0024
:1007b0003023ef0000102000201988002223ef00d2
:1007c00001198000600028000100700000198800f5
:1007d00000352c005eff07008eff0700e02928008f
:0807e000b8ff0700ffff37001e
:020000040000fa
:1007e8000408000010000000020000003031320050
:1007f8003334350036373800394142004344450028
:10080800460000000008000002000000020000008e
:10081800d0070000020800000200000000000000ed
:0408280000000000cc
:020000040000fa
:020000040001f9
:0457f80087790000ad
:020000040000fa
:020000040001f9
:0457fc003f3e00002c
:00000001FF
